:020000040800F2
:10000000F811002045010008592900085B29000863
:100010005F29000863290008672900080000000024
:100020000000000000000000000000006B29000834
:100030006D290008000000006F29000871290008E0
:100040005F0100085F0100085F0100085F01000810
:100050005F0100085F0100085F0100085F01000800
:100060005F0100085F0100085F0100085F010008F0
:100070005F0100085F0100085F0100085F010008E0
:100080005F0100085F0100085F0100085F010008D0
:100090005F0100085F0100085F0100085F010008C0
:1000A0005F0100085F0100085F0100085F010008B0
:1000B0005F0100085F0100085F0100085F010008A0
:1000C0005F0100085F0100085F0100085F01000890
:1000D0005F0100085F0100085F0100085F01000880
:1000E0009F2900085F0100085F0100085F01000808
:1000F0005F0100085F0100085F0100085F01000860
:100100005F0100085F0100085F0100085F0100084F
:100110005F0100085F0100085F0100085F0100083F
:100120005F0100085F0100085F0100085F0100082F
:10013000DFF80CD00CF0F8FB00480047352400082D
:10014000F81100200648804706480047FEE7FEE712
:10015000FEE7FEE7FEE7FEE7FEE7FEE7FEE7FEE777
:1001600047020008310100080CB500200190009002
:100170006C48006840F480306A49086000BF6948F4
:10018000006800F4003000900198401C0190009835
:1001900018B90198B0F5A06FF1D16248006800F479
:1001A000003010B10120009001E000200090009884
:1001B000012843D15C48006840F010005A490860AB
:1001C0000846006820F0030008600846006840F018
:1001D0000200086053484068524948600846406839
:1001E00048600846406840F48060486008464068BF
:1001F00020F47C1048600846406840F4E8104860ED
:100200000846006840F08070086000BF45480068FC
:1002100000F000700028F9D04248406820F0030048
:10022000404948600846406840F00200486000BF0E
:100230003C48406800F00C000828F9D10CBD10B50E
:10024000FFF792FF10BD10B53648006840F001007E
:1002500034490860084640683449084031494860DC
:1002600008460068324908402E4908600846006880
:1002700020F4802008600846406820F4FE004860B2
:100280004FF41F008860FFF7DAFF4FF00060294944
:10029000086010BD10B5002100200022214B5B68D2
:1002A00003F00C0121B1042906D0082928D107E068
:1002B000214B224C236027E01F4B204C236023E07E
:1002C000184B5B6803F47010164B5B6803F48032C4
:1002D000022303EB904022B9194B4343174C236090
:1002E0000DE0104B5B6803F4003323B1144B434320
:1002F000124C236003E0104B4343104C236003E097
:100300000D4B0E4C236000BF00BF064B5B68C3F370
:1003100003130C4CE15C094B1B68CB40074C23607A
:1003200010BD000000100240002002400000FFF855
:10033000FFFFF6FE08ED00E000127A00000000204A
:1003400000093D000400002031490143314A116099
:10035000704770B5002100230F22C47804B32D4CE0
:10036000246804F4E064C4F5E064210AC1F10403E4
:10037000CA40447804FA03F1847814402143090107
:10038000254C0678A155047804F01F050124AC40E3
:1003900005786D11AD0005F1E025C5F8004109E0D3
:1003A000047804F01F050124AC401C4D067876113A
:1003B00045F8264070BD1A4A0A400243154B1B1FE0
:1003C0001A60704739B1134A121D12680243114B6B
:1003D0001B1D1A6006E00F4A121D126882430D4B66
:1003E0001B1D1A607047042808D14FF0E0210969ED
:1003F00041F004014FF0E022116107E04FF0E021ED
:10040000096921F004014FF0E022116170470000FA
:100410000000FA050CED00E000E400E080E100E0FF
:1004200080FFFF1F002044490860091D0860091D66
:100430000860091D086041483F4914310860704751
:1004400000213D498279002A3AD00A4612680368A1
:100450009A430B461A600A1D126803689A430B1DE3
:100460001A60027911440A6803681A430A60324A22
:100470000832126803689A432F4B08331A601A1D1A
:10048000126803689A432C4B0C331A604279102A85
:100490000ED11A1F126803681A43274B08331A60DB
:1004A0001A1D126803681A43234B0C331A600DE0BF
:1004B0002149427911440A6803681A430A6005E039
:1004C000027911440A6803689A430A607047002160
:1004D000016001710C214171002181717047164941
:1004E000103109680143144A103211607047014607
:1004F0000020114A143212680A400AB1012000E0BB
:10050000002070470C4914310860704701460020F4
:100510000022094B1B6803EA0102074B14331B68D6
:100520000B4013B10AB1012000E0002070470249DE
:10053000143108607047000000040140FFFF0F0005
:1005400030B943F2DB028100A1F1C0410A6005E04D
:1005500043F2D2028100A1F1C0410A606FF0704203
:10056000411C8900A1F1C0410A608100A1F1C04194
:10057000C1F80421704710280AD118214FF02042F9
:100580001166402151664FF0FC319166D16610E052
:100590001821F74A116040214FF02042C2F8841020
:1005A0004FF0FC31F24A083211604FF02042C2F89D
:1005B0008C1070471820EE49203108600020090691
:1005C000C1F8A4004FF0FC30E94928310860091D4A
:1005D0000860091D08607047D0E901121143C26824
:1005E0001143026911434269114382691143C2698F
:1005F0001143026A1143426A1143826A1143C26A7B
:100600001143026B114302689200A2F1C0421160D3
:10061000816808290BD101688900A1F1C0410968EE
:1006200041F0400201688900A1F1C0410A60416BBC
:100630000968426B526841EA0211426B926841EAD2
:100640000221426B928941EA0241426B128A41EADD
:100650000251426B127D41EA0261426B9269114381
:100660000268521C9200A2F1C0421160C16AB1F549
:10067000804F1BD1816B0968826B526841EA02117D
:10068000826B926841EA0221826B128A41EA02512E
:10069000826B127D41EA0261826B926911430268AA
:1006A0009200A2F1C042C2F8041107E06FF070425C
:1006B00001688900A1F1C041C1F80421704730B53B
:1006C000002100220023446844F0080485682C437C
:1006D000C5682C4305692C43456944EA452485696E
:1006E00044EA4531C4692468C5696D6844EA052453
:1006F000C5692D8944EA0544C5692D7B44EA056234
:10070000046A2468056A6D6844EA0524056A2D892F
:1007100044EA0544056A2D7B44EA05630468102C0D
:1007200005D14FF020442166A266E36608E0904CB4
:1007300021604FF02044C4F888208D4C0C34236095
:1007400030BD016841F01001426841EA42218268EF
:1007500041EA4231864A20321160C1680968C268A4
:10076000526841EA0221C268128941EA0241C26824
:10077000127B41EA02617E4A2832116001690968F0
:100780000269526841EA02210269128941EA024182
:100790000269127B41EA0261754A2C32116041699B
:1007A00009684269526841EA02214269128941EAB4
:1007B00002414269127B41EA02614FF02042C2F8D5
:1007C000B01070470021016002214160002181606A
:1007D000C160016141618161C16101624FF4805179
:1007E0004162490081620021C16201630F21426BB5
:1007F0001160426B5160FF21426B91600F21426B8F
:10080000D160426B1161426B51610021426B916179
:100810000F21826B1160826B5160FF21826B9160AE
:100820000F21826BD160826B1161826B516100215B
:10083000826B9161704710210160002141608160ED
:10084000C160016141618161FC21C2691160C269BD
:100850005160C2699160C269D160026A1160026A26
:100860005160026A9160026AD160704700210160A4
:1008700041608160FC21C2681160C2685160C26839
:100880009160C268D16002691160026951600269B9
:1008900091600269D16042691160426951604269A8
:1008A00091604269D160704751B18200A2F1C042AB
:1008B000126842F001038200A2F1C042136009E015
:1008C0008200A2F1C04212682A4B1A408300A3F1B1
:1008D000C0431A60704799B1102808D14FF02042E8
:1008E000126E42F004024FF020431A661DE0204AC7
:1008F000126842F004024FF02043C3F8802014E055
:10090000102809D14FF02042126E1A4BDB1E1A40FC
:100910004FF020431A6608E0154A1268154BDB1E9B
:100920001A404FF02043C3F88020704748B1104967
:100930002031096841F004014FF02042C2F8A010B4
:1009400009E00B49203109680A4AD21E11404FF0D4
:100950002042C2F8A0107047B9B110280CD14FF056
:100960002042126E42F040024FF020431A661FE010
:10097000800000A0FEFF0F00724A126842F04002A1
:100980004FF02043C3F8802012E0102808D14FF028
:100990002042126E6C4B1A404FF020431A6607E05B
:1009A000684A1268684B1A404FF02043C3F8802011
:1009B000704701460020102903D14FF02042506FAC
:1009C00002E0604A14321068704710B5F2B1102886
:1009D00007D14FF020435B6E0B434FF0204463661A
:1009E00032E0B0F5807F08D1564B1B1D1B680B43CE
:1009F0004FF02044C4F8843026E0524B24331B6867
:100A00000B434FF02044C4F8A4301DE0102807D158
:100A10004FF020435B6E8B434FF02044636613E03E
:100A2000B0F5807F08D1474B1B1D1B688B434FF0EF
:100A30002044C4F8843007E0424B24331B688B43C6
:100A40004FF02044C4F8A43010BD10B50246002079
:100A50000023102A03D14FF02044636E09E0B2F561
:100A6000807F03D1374C241D236802E0354C2434A9
:100A7000236803EA01040CB1012000E0002010BD4E
:100A8000102807D14FF02042526E8A434FF0204386
:100A90005A6613E0B0F5807F08D12A4A121D126809
:100AA0008A434FF02043C3F8842007E0254A2432CC
:100AB00012688A434FF02043C3F8A420704770B5F2
:100AC00002460020002300240025102A03D14FF005
:100AD0002046736E09E0B2F5807F03D1194E361DB2
:100AE000336802E0174E2436336803EA010403EA50
:100AF000D10514B10DB1012000E0002070BD102817
:100B000008D14FF02042526E22EAD1024FF020432A
:100B10005A6615E0B0F5807F09D10A4A121D1268A5
:100B200022EAD1024FF02043C3F8842008E0054AAE
:100B30002432126822EAD1024FF02043C3F8A420E5
:100B400070470000800000A0BFFF0F0010B50446F2
:100B5000CC48844208D10121042000F02DFB002163
:100B6000042000F029FB46E0C748844208D1012157
:100B7000082000F021FB0021082000F01DFB3AE0D6
:100B8000C248844208D10121102000F015FB002149
:100B9000102000F011FB2EE0BD48844208D1012155
:100BA000202000F009FB0021202000F005FB22E0BE
:100BB000B848844208D10121402000F0FDFA00210C
:100BC000402000F0F9FA16E0B348844208D1012130
:100BD000802000F0F1FA0021802000F0EDFA0AE018
:100BE000AE48844207D10121801500F0E5FA0021CA
:100BF000A01500F0E1FA10BD10B50121084600F083
:100C0000DBFA0021012000F0D7FA10BD2DE9F041F8
:100C1000024600250026002000230024002791F82A
:100C200003C00CF00F0591F803C00CF0100CBCF1E0
:100C3000000F03D091F802C04CEA050591F800C0FE
:100C4000BCF1000F31D0146800202BE04FF0010CF4
:100C50000CFA00F3B1F800C00CEA03069E4220D162
:100C600083004FF00F0C0CFA03F7BC4305FA03FCAA
:100C70004CEA040491F803C0BCF1280F06D14FF0F0
:100C8000010C0CFA00FCC2F814C00AE091F803C091
:100C9000BCF1480F05D14FF0010C0CFA00FCC2F872
:100CA00010C0401C0828D1D31460B1F800C0BCF1BA
:100CB000FF0F34DD546800202EE000F1080C4FF0E7
:100CC000010808FA0CF3B1F800C00CEA03069E42D2
:100CD00021D183004FF00F0C0CFA03F7BC4305FA47
:100CE00003FC4CEA040491F803C0BCF1280F05D1C1
:100CF00000F1080C08FA0CF8C2F8148091F803C04F
:100D0000BCF1480F07D100F1080C4FF0010808FAB8
:100D10000CF8C2F81080401C0828CED35460BDE8FF
:100D2000F0814FF6FF710180022181700421C170B2
:100D300070470246002093680B400BB1012000E091
:100D4000002070470146886880B270470246002044
:100D5000D3680B400BB1012000E000207047014632
:100D6000C86880B2704701617047416170470AB13D
:100D7000016100E041617047C16070474FF480320B
:100D80000A43826181618261826982697047024699
:100D90000020434B18684FF68073184040EA021059
:100DA00008433F4B186070473E49C8617047F0B533
:100DB0000A46002300240021002500F00046B6F179
:100DC000004F02D1364EF16901E0354E7168C0F333
:100DD000034583B200F44016B6F5401F08D121F058
:100DE00070612F4E766826F070662D4F7E6012E09F
:100DF00000F48016B6F5801F06D1032606FA05F426
:100E0000A14341F0706106E0460D360103FA06F693
:100E1000B14341F0706122B1460D360103FA06F686
:100E2000314300F00046B6F1004F02D11C4EF16193
:100E300001E01B4E7160F0BD30B500228B071C0F26
:100E40000F2303FA04F2164B08338C1053F82430A6
:100E50009343134C08348D1044F8253023468C10EE
:100E600053F824308C07240F00FA04F423430C4C6D
:100E700008348D1044F8253030BD0A49DC31086053
:100E80007047000000080140000C014000100140C4
:100E90000014014000180140001C014000200140E6
:100EA0000000014000002042DF48006840F00100DF
:100EB000DD49086008464068DC490840DA49486076
:100EC00008460068DA490840D749086008460068C3
:100ED00020F4802008600846406820F4FE00486046
:100EE0004FF41F0088607047CF49096821F48031B2
:100EF000CD4A11601146096821F480211160B0F5D6
:100F0000803F03D0B0F5802F0ED106E0C6490968B6
:100F100041F48031C44A116007E0C349096841F4D3
:100F2000A021C14A116000E000BF00BF704710B5AA
:100F300001460022002300204A11012A02D1BA4CA6
:100F4000236806E0022A02D1B74C236A01E0B64CBE
:100F5000636A01F01F02012494401C400CB101207F
:100F600000E0002010BD38B50020009000240025CE
:100F700000BF3120FFF7DBFF05460098401C0090C2
:100F80000098B0F5A06F01D0002DF2D03120FFF70E
:100F9000CEFF08B1012400E00024204638BD014600
:100FA0000020A14A106820F0F80040EAC10010605B
:100FB0007047A04908607047024600209A4B586865
:100FC00020F47C1042EA01031843974B58607047A5
:100FD00098490866704701460020934A506820F0FF
:100FE00003000843506070478F48406800F00C00D1
:100FF0007047014600208C4A506820F0F0000843FA
:101000005060704701460020874A506820F4E06035
:1010100008435060704701460020834A506820F41E
:10102000605040EAC1005060704729B17E4A527A50
:1010300002437D4B5A7204E07B4A527A82437A4BD8
:101040005A7270477B49D8310860704701460020CA
:10105000754A506820F440400843506070470021B2
:10106000714A20321170704A82F82010012802D093
:1010700004280AD104E001216B4A2032117005E0F6
:101080000521694A2032117000E000BF00BF70479F
:101090006949086070476449096A0143624A1162FC
:1010A0007047654944390860704730B50021002217
:1010B000002400235C4D6D6805F00C0121B104296A
:1010C00005D0082923D105E05C4D056022E05B4D89
:1010D00005601FE0544D6D6805F47012524D6D6847
:1010E00005F48034022505EB92421CB9544D55435A
:1010F00005600BE04C4D6D6805F400351DB1504D99
:101100005543056002E04D4D5543056002E04B4DEF
:10111000056000BF00BF444D6D6805F0F00109098E
:10112000484D6B5C0568DD4045603F4D6D6805F4DA
:10113000E061090A434D6B5C4568DD4085603A4DCE
:101140006D6805F46051C90A3E4D6B5C4568DD4031
:10115000C560354D6D6805F44041890B3A4D6B5CB7
:10116000C568B5FBF3F5056130BD29B12E4A52695A
:1011700002432D4B5A6104E02B4A526982432A4BA9
:101180005A61704729B1284A92690243264B9A61F5
:1011900004E0254A92698243234B9A61704729B142
:1011A000214AD2690243204BDA6104E01E4AD26927
:1011B00082431D4BDA61704729B11B4AD268024352
:1011C000194BDA6004E0184AD2688243164BDA60A1
:1011D000704729B1144A12690243134B1A6104E0A3
:1011E000114A12698243104B1A6170471249403903
:1011F000086070470F49C86470470B49C871704751
:101200000948406A40F080700749486270470146CB
:101210000020054A92680A400AB1012000E000203F
:101220007047014988727047001002400000FFF8C3
:10123000FFFFF6FE000042428004424200127A00A4
:1012400000093D00140000202400002010B50446D1
:10125000FB48844209D101218803FFF7ADFF00213B
:101260004FF48040FFF7A8FF32E0F648844209D1EE
:1012700001214804FFF7ADFF00214FF40030FFF7D4
:10128000A8FF25E0F048844209D101218804FFF736
:10129000A0FF00214FF48020FFF79BFF18E0EB48F0
:1012A000844209D10121C804FFF793FF00214FF4C4
:1012B0000020FFF78EFF0BE0E548844208D10121B2
:1012C0000805FFF786FF00214FF48010FFF781FF2C
:1012D00010BD2DE9F04786B005460E460024A24613
:1012E00000BFA1460027B08900B100BF2F462C8A5D
:1012F0004CF6FF700440F08804432C82AC894EF613
:10130000F3100440B08831890843718908430443CD
:10131000AC81AC8A4FF6FF400440B0890443AC82F4
:1013200001A8FFF7C2FEC648874202D1DDF810A02F
:1013300001E0DDF80CA0A88900F4004040B10AEB00
:10134000CA0000EB0A1031684900B0FBF1F807E071
:101350000AEBCA0000EB0A1031688900B0FBF1F813
:101360006420B8FBF0F004012009642101FB10891E
:10137000A88900F4004040B1322000EBC900B0FB66
:10138000F1F000F00700044308E0322000EB091000
:101390006421B0FBF1F000F00F0004432C8106B093
:1013A000BDE8F0874FF41651016000218180C180B3
:1013B00001810C21418100218181704710B50246D5
:1013C0000020108A4FF2FF0318400B884C882343FB
:1013D0008C882343CC8823431843108210BD0021FE
:1013E000018041808180C180704721B1828942F4AF
:1013F0000052828104E082894DF6FF731A40828197
:101400007047F0B50346002400260025002040F672
:101410006A17B94200D100BF1846C1F3421401F067
:101420001F06012707FA06F5012C01D10C3004E054
:10143000022C01D1103000E014301AB107682F439C
:10144000076002E00768AF430760F0BD1AB1838A06
:101450000B43838202E0838A8B4383827047028A34
:101460004FF6F0731A400282028A0A4302827047E2
:1014700082894FF2FF731A40828182890A438281F6
:10148000704721B1828942F00202828104E08289A0
:101490004FF6FD731A4082817047028A4FF6DF7360
:1014A0001A400282028A0A430282704721B1028AEC
:1014B00042F48042028204E0028A4BF6FF731A4033
:1014C00002827047C1F30802828070470146888813
:1014D000C0F308007047818941F0010181817047A4
:1014E000028BD2B20283028B42EA0122028370474E
:1014F000028B02F47F420283028B0A43028370470D
:1015000021B1828A42F02002828204E0828A4FF670
:10151000DF731A408282704721B1828A42F0100242
:10152000828204E0828A4FF6EF731A40828270470B
:1015300021B1828A42F00802828204E0828A4FF658
:10154000F7731A408282704721B1828942F40042C7
:10155000828103E08289C2F30E028281704721B149
:10156000828A42F40062828204E0828A4FF2FF7330
:101570001A4082827047828A4FF6FB731A40828239
:10158000828A0A438282704721B1828A42F0020233
:10159000828204E0828A4FF6FD731A40828270478D
:1015A00002460020B1F5007F00D100BF13880B4038
:1015B0000BB1012000E00020704701F40072B2F589
:1015C000007F00D100BFCA430280704770B5024659
:1015D000002400230025002040F66A16B14200D105
:1015E00000BFC1F3421501F01F03012606FA03F301
:1015F000012D02D19689334006E0022D02D1168AD0
:10160000334001E0968A33400C12012606FA04F4B6
:101610001688344013B10CB1012000E0002070BDE9
:1016200010B50022002340F66A14A14200D100BF89
:101630000A1201249440A3B2DC43048010BD0000D0
:10164000003801400044004000480040004C004089
:101650000050004010B5044600BF8021FD48FFF750
:101660009FFF0028F9D02146FA48FFF72BFF10BD55
:101670002DE9F0478EB081460E461746002500241E
:10168000A046AA222146641C0DF801202146641CB4
:101690000DF8012001222146641C0DF801200022D2
:1016A0002146641C0DF80120EB4930460AF069FC24
:1016B00082460AF0B6FE0D909DF835202146641C46
:1016C0000DF801209DF834202146641C0DF80120FE
:1016D000E14948460AF055FC82460AF0A2FE404223
:1016E0000D909DF835202146641C0DF801209DF8D1
:1016F00034202046611CCCB20DF80020D649384673
:101700000AF03FFC82460AF08CFE0D909DF83520D1
:101710002046611CCCB20DF800209DF834202046F4
:10172000611CCCB20DF8002000200D909DF83720F0
:101730002046611CCCB20DF800209DF836202046D2
:10174000611CCCB20DF800209DF835202046611CAC
:10175000CCB20DF800209DF834202046611CCCB29C
:101760000DF80020A0222046611CCCB20DF800200C
:10177000201FC0B28DF8030000BF06E01DF8050071
:10178000404400F0FF08681CC5B2A542F6DB2046C5
:10179000611CCCB20DF80080002505E01DF80500A5
:1017A000FFF758FF681CC5B2A542F7DB0EB0BDE8D5
:1017B000F0872DE9F0418EB005460E460027002443
:1017C000A046AA222146641C01A842542146641C5A
:1017D000425402222146641C425400222146641CC9
:1017E000425472782146641C425432782146641C6B
:1017F0004254F2782146641C4254B2782046611C5F
:10180000CCB201A90A5472792046611CCCB201A95C
:101810000A5432792046611CCCB201A90A546A7874
:101820002046611CCCB201A90A542A782046611CCA
:10183000CCB201A90A54EA782046611CCCB201A9B5
:101840000A54AA782046611CCCB201A90A546A79CC
:101850002046611CCCB201A90A542A792046611C99
:10186000CCB201A90A5400222046611CCCB201A9C5
:101870000A542046611CCCB201A90A542046611CBE
:10188000CCB201A90A542046611CCCB201A90A5469
:101890002046611CCCB201A90A542046611CCCB27E
:1018A00001A90A54201FC0B28DF8070000BF06E04E
:1018B00001A8C05D404400F0FF08781CC7B2A742F1
:1018C000F6DB2046611CCCB201A901F8008000279C
:1018D00005E001A9C85DFFF7BDFE781CC7B2A742AD
:1018E000F7DB0EB0BDE8F0812DE9F04FA5B0002088
:1018F00017901890199000BF00BF1AAA1BA91CA826
:1019000005F040F958B11CA804F0DDFF5348007EF3
:1019100000F0040018B11CA9032005F031F84F486D
:10192000007E00F0010048B11AAA1BA91CA805F00E
:10193000F3F818B11CA9002005F022F84748007EF2
:1019400000F0020048B11AAA1BA91CA805F0F6F87D
:1019500018B11CA9012005F013F84048007E00F0E2
:10196000100048B11AAA1BA91CA805F073F918B1F8
:101970001CA9042005F004F804AA1BA91CA805F062
:1019800069F9002864D01C980AF03AFD0746002245
:10199000334B0AF019FC0022324BCDE900010AF06A
:1019A00085FC05460AF0EEFD83461D980AF028FDE9
:1019B00000222B4BCDE900010AF006FC054600226F
:1019C000284B0AF073FC07460AF0DCFD81461E989E
:1019D0000AF016FD0022224BCDE900010AF0F4FBCB
:1019E000074600221F4B0AF061FC05460AF0CAFDBB
:1019F0008246524649465846FFF73AFE1A49A1F137
:101A00004400FFF7D6FE58460AF078FD05462A4600
:101A10000B4616A105A80AF0A9FF05AA5A211E2007
:101A200002F015F848460AF069FD05462A460B46BD
:101A300013A105A80AF09AFF05AA6E211E2002F044
:101A400006F850460AF05AFD05462A460B4621E0A4
:101A500048E00000003801400000C842CC000020EF
:101A60000000F03F0000F040B002002050697463B5
:101A700068203A202020252E3466202020000000F7
:101A8000526F6C6C203A202020252E3466202020B6
:101A900000000000FDA105A80AF068FF05AA822148
:101AA0001E2001F0D4FF04A91CA802F0BCFD1C9864
:101AB0000AF0A6FC0022F94BCDE900010AF084FBF4
:101AC00007460022F64B0AF0F1FB05462A460B4674
:101AD000F4A105A80AF04AFF05AA96211E2001F0EC
:101AE000B6FF00BF04A800F0DBFFF448C06804990B
:101AF000884215D2049800F57A70F049C86003A8AE
:101B000004F028FB02A804F05BFBEDA105A8DDE9C9
:101B100002320AF02BFF05AAB421002001F097FF42
:101B2000E648007E00F0200048B11AAA1BA91CA8B4
:101B300005F09CF918B11CA9052004F021FFDF482D
:101B4000007E00F0400048B11AAA1BA91CA805F0AD
:101B500029F818B11CA9062004F012FFD748008B01
:101B600000F48070C8B11AAA1BA917A806F0A0F843
:101B700098B119980AF0C2FC81468A4618980AF072
:101B8000BDFC05460E4617980AF0B8FCDAA28DE8AF
:101B900063060021042004F032FEC848008B00F4E4
:101BA0000070D8B11AAA1BA917A806F0B8F8A8B1F6
:101BB00019980AF0A3FC05460E4618980AF09EFCF8
:101BC0000746884617980AF099FCD4A28DE883014D
:101BD000CDE904560021042004F011FEB748007E30
:101BE00000F08000E0B116A800F05AFFB348C068CA
:101BF0001699884213D2169800F57A70AF49C860DA
:101C000015A804F0A7FA14A804F0DAFA14980090C2
:101C1000CBA200210420159B04F0F1FD00BF00BF02
:101C2000032006F073FB044684B104F0010028B1E0
:101C3000CEA20021042004F0E2FD07E004F002003F
:101C400020B1CDA20021042004F0D9FD25B0BDE8CB
:101C5000F08FF8B50024002500BF00BF97484078FA
:101C600000F0010008B144F008049448407800F006
:101C7000020020B144F070049048007805432046EB
:101C800002F042F8204602F033FA75B100208B4989
:101C90000870684602F04AFFBDF80000B94991FBA0
:101CA000F0F6304605F032FA00BFF8BD70B50446D4
:101CB0000D4600BF00BF072C29D2DFE804F028043E
:101CC0000A10161C2200B0A20021042004F097FD87
:101CD0001EE0AFA20021042004F091FD18E0AEA2A6
:101CE0000021042004F08BFD12E0ADA200210420AD
:101CF00004F085FD0CE0ACA20021042004F07FFD7F
:101D000006E0ABA20021042004F079FD00E070BDE4
:101D100000BF2B46A8A20021042004F070FD00BFE4
:101D2000F5E710B5044600BF00BF34B1012C0AD05E
:101D3000022C0ED0032C18D111E0A1A20021042006
:101D400004F05DFD12E0A1A20021042004F057FD83
:101D50000CE0A1A20021042004F051FD06E0A3A2A2
:101D60000021042004F04BFD00E010BD00BF00BFC7
:101D7000FBE72DE9F04F8FB000BF00BF09A90CA809
:101D800003F089FC8246BAF1070F7DD19CA20021A5
:101D9000042004F034FD0B980AF00EFB4FF08F4145
:101DA00006900AF020F983460AF0A8FB04460D4687
:101DB0000A980AF001FB4FF08F4106900AF013F9E0
:101DC00083460AF09BFB06460F4609980AF0F4FA90
:101DD0004FF08F4106900AF006F983460AF08EFB19
:101DE0008AA28DE8C300CDE904450021042004F057
:101DF00006FD0E980AF0E0FA4FF08F4106900AF0C7
:101E0000F2F883460AF07AFB804689460D980AF07C
:101E1000D3FA4FF08F4106900AF0E5F883460AF0B6
:101E20006DFB04460D460C980AF0C6FA4FF08F4140
:101E300006900AF0D8F883460AF060FB7AA28DE893
:101E400033030021042004F0DAFC08A802F0A3FE0A
:101E5000BDF82010099848430990BDF820100A9851
:101E600048430A90BDF820100B9848430B9003217B
:101E700009A805F08BFA07A802F070FE0C980AF08A
:101E80009BFA05460799DDE0FDE0000059617720E7
:101E90003A202020252E3466202020000000F03F2C
:101EA0000000F04054656D70657261747572652054
:101EB0003A202020252E326620202000CC00002051
:101EC00057616C6B6564207374657073203A2020D1
:101ED000256C6420207374657073206F76657220A2
:101EE00020256C6420206D696C6C697365636F6E6E
:101EF00064732E2E000000004C696E6561722041F3
:101F00006363656C3A2025372E35662025372E35DC
:101F1000662025372E35660D0A000000477261766F
:101F200069747920566563746F723A2025372E35AF
:101F3000662025372E35662025372E35660D0A009A
:101F400057616C6B656420256C64207374657073D5
:101F5000206F76657220256C64206D696C6C6973E6
:101F600065636F6E64732E2E0A0000004D6F7469F6
:101F70006F6E210A000000004E6F206D6F74696F54
:101F80006E210A0040420F0054617020582B20003F
:101F900054617020582D200054617020592B20006E
:101FA00054617020592D2000546170205A2B20005C
:101FB000546170205A2D20007825640A000000002A
:101FC000506F7274726169740A0000004C616E6433
:101FD00073636170650A00005265766572736520EF
:101FE000506F7274726169740A0000005265766500
:101FF000727365204C616E6473636170650A0000E2
:10200000506173736564210A0000000061636365B9
:102010006C3A2025372E34662025372E346620254D
:10202000372E34660A0000006779726F3A20253730
:102030002E34662025372E34662025372E34660A46
:102040000000000009F09DFF04460AF0EAF90C9038
:102050000D980AF0B1F90546079909F092FF044678
:102060000AF0DFF90D900E980AF0A6F905460799D7
:1020700009F087FF04460AF0D4F90E9003210CA85A
:1020800005F0E9F917E00AF0010020B9FDA20021EE
:10209000062004F0B4FB0AF0020020B9FDA20021E2
:1020A000062004F0ACFB0AF0040020B9FDA20021D8
:1020B000062004F0A4FB0FB0BDE8F08F38B5FE4851
:1020C000FFF704FAC5B200BF00BF642D74D01ADC5C
:1020D000352D72D00ADCA5F12C0009286ED2DFE87C
:1020E00000F0F36DF26D6DA5B9D0E700382D19D071
:1020F00004DC362D71D0372D60D11BE1392D21D074
:10210000612DF9D12EE0A5F165001228E6D2DFE8B5
:1021100000F037F5304C56555555F4555D68453E41
:10212000558455F3E548407880F00100E349487054
:10213000FFF78FFDE148407800F0010008B905F095
:10214000F7FA6CE1DD48407880F00200DB49487026
:10215000FFF77FFDD948407800F0020008B905F08C
:10216000F5FA5CE1D548806980F00100D3498861C7
:1021700055E1D248806980F00200D04988614EE183
:10218000CE48806980F01000CC49886147E1CB4897
:10219000806980F02000C949886140E1C7488069B2
:1021A00080F00400C549886139E1C448806980F045
:1021B0004000C249886132E110E092E02EE1BF4860
:1021C000806980F48070BD49886128E1BB488069DE
:1021D00080F40070B949886121E1A4E001F013FDA9
:1021E0001DE1B648807800B119E1142001F0F4FF38
:1021F000002001F056FDB148407820F00600AF49BC
:1022000048700846407840F001004870012008708E
:1022100005F09CFA05F090FA01E1FFF7AAFD05F040
:1022200087FA05F093FA05F087FAF8E0A34880787A
:1022300030B10A2003F0DFFDA14804F09AFF02E06C
:102240000A2002F036F89E4804F050FF9C4804F043
:102250005DFFE4E09948807838B1142003F0CBFDAD
:102260004CF2503004F085FF02E0142002F021F817
:102270004CF2503004F03AFF4CF2503004F046FF7C
:10228000CDE08E48807838B1282003F0B4FD46F2C6
:10229000A81004F06EFF02E0282002F00AF846F2CF
:1022A000A81004F023FF46F2A81004F02FFFB6E0B8
:1022B0008248807848B1322003F09DFD44F62060CA
:1022C00004F057FF04E02AE025E0322001F0F1FF9E
:1022D00044F6206004F00AFF44F6206004F016FF84
:1022E0009DE07648807850B1642003F084FD42F28E
:1022F000107004F03EFF05E074E072E021E064201D
:1023000001F0D7FF42F2107004F0F0FE42F21070BC
:1023100004F0FCFE83E0012004F033F97FE00220AA
:1023200004F02FF97BE06548806980F08000634904
:10233000886174E0002003F02EFF002003F064FFAA
:102340006DE05E48007800B138BD5C48807860B3CD
:10235000002400205949887003F058F95748407804
:1023600000F0010008B144F008045448407800F03F
:10237000020008B144F070045048407800F00400B6
:1023800008B144F00104204601F0B2FE684603F0B3
:1023900077FDBDF8000001F08CFF05F0D2F949A2ED
:1023A0000021042004F02BFA1AE001204349887030
:1023B000684602F0BBFBBDF8000003F01CFDBDF851
:1023C0000000444991FBF0F4204604F0D2FE0120C5
:1023D00003F01CF940A20021042004F010FA00BF11
:1023E0001DE01CE03548808B80F010003349888365
:1023F000888B03F088FF3148007F00F0100038B967
:1024000005F09FF938A20021042004F0F8F904E057
:102410003CA20021042004F0F2F900E000BF00BF5C
:102420000021264880F8211000BF8DE701202349B4
:102430000871704796B0002501F0AFF8062001F052
:1024400035F8364801F05FFB00214FF4784001F089
:1024500060FB00F0E7FA4FF0E020006940F0010077
:102460004FF0E021086100F0A9FA00F039FB00F01C
:10247000AFFD00F0B9FB4FF4A073F0220021084635
:102480004EE000004779726F206661696C65642ECA
:102490000A000000416363656C206661696C6564D5
:1024A0002E0A0000436F6D70617373206661696C62
:1024B00065642E0A0000000000380140CC000020B6
:1024C000A0860100444D502064697361626C6564AC
:1024D0002E0A000040420F00444D5020656E61629C
:1024E0006C65642E0A0000004C50207175617465A3
:1024F000726E696F6E2064697361626C65642E0A26
:10250000000000004C50207175617465726E696F37
:102510006E20656E61626C65642E0A0068000020A2
:1025200001F096F8CAA21421084601F090FACEA054
:102530000AF00CFA11A801F08CFF04465CB12346A6
:10254000CEA20021062004F05AF9D6A228210020AC
:1025500001F07DFA04E0E2A228211E2001F077FAC2
:1025600006F088FE044624B1E2A20021062004F011
:1025700046F909F048F908F010FA07F013FF08F0DF
:102580009AFC04F01AFD06F0AFFE0446322C06D188
:1025900004E0DFA20021062004F031F9F9E724B1BC
:1025A000E0A20021062004F02AF9782001F0ACFB1B
:1025B000782001F09DFD142001F07BFE14A802F0AC
:1025C000B5FA13A802F049FA15A802F066FABDF8A8
:1025D0005000DB4991FBF0F6304604F087FDBDF872
:1025E0005000D74991FBF0F6304604F08FFDD548F6
:1025F00006F0A3FC0646BDF84C00C103304604F0CB
:102600006CFDD04806F099FC06469DF85400C103C5
:10261000304604F006FE0320CB4948700020887045
:1026200088610021C84880F821100020C649C86090
:102630004861086112A800F033FA03F017FAC148A4
:1026400006F07BFC064603F01BFAC04804F0BBF81A
:10265000BF4804F0BDF840F27310BB498883888BF3
:1026600003F051FE142003F0C6FB012002F0CEFF60
:102670000120B5498870EAE000262021B548FEF720
:102680008FFF28B12021B348FEF797FFFFF716FD13
:1026900012A800F005FAAC4800691299884205D2E8
:1026A000129800F5FA70A84908610125A6484079FA
:1026B000D0B1052201214FF4FA7003F061F905F061
:1026C00037F805F043F805F037F805F03AF800BFA1
:1026D0009D4800790028FBD000221146104603F0E7
:1026E0004FF90020984948719748407810B19648B2
:1026F000007900B9ABE094480079C8B192480078FD
:10270000B0B110A90EA801F057FFBDF938000B9029
:10271000BDF93A000C90BDF93C000D9000210BA8CA
:10272000109A04F0FAFE012600208749087188E01B
:1027300085480079002847D083488078002843D016
:102740000AA80BA910AB03AACDE900100CA90EA88A
:1027500003F038FF9DF8280010B900207A4908716D
:10276000BDF82C0000F0700070B10EA8109904F0B4
:1027700014FF012645B1002510A902A801F053FF5E
:102780001099029804F0A5FFBDF82C0000F0080095
:1027900070B1BDF930000790BDF932000890BDF965
:1027A00034000990002107A8109A04F0B6FE012613
:1027B000BDF82C0000F4807028B1002103A8109A05
:1027C00004F09AFF01263CE05F480079C8B300207E
:1027D0005D4908710AA80BAB10AA0CA900900EA8BD
:1027E00002F031FA9DF8280010B101205649087115
:1027F0009DF82C0000F0700070B10EA8109904F044
:10280000CCFE012645B1002510A906A801F00BFF5A
:102810001099069804F05DFF9DF82C0000F0080068
:1028200070B1BDF930000790BDF932000890BDF9D4
:1028300034000990002107A8109A04F06EFE0126CA
:1028400000BF1EB105F0C3F8FFF74EF800BF13E755
:10285000546869732069732061204D5055363035B6
:10286000302064656D6F00006D7075203630353036
:10287000207465737420737461727400436F756C97
:1028800064206E6F7420696E697469616C697A6521
:10289000206779726F2E726573756C74203D2020ED
:1028A00025640A004E6F204D505536303530206477
:1028B0006574636574656421506C6561736520633C
:1028C0006865636B20746865206861726477617203
:1028D0006520636F6E6E656374696F6E2E00000015
:1028E0004D505536303530206465637465746564C9
:1028F00021000000436F756C64206E6F7420696E58
:10290000697469616C697A65204D504C2E0A00002B
:102910004E6F7420617574686F72697A65642E0AEF
:1029200000000000436F756C64206E6F7420737438
:1029300061727420746865204D504C2E0A000000AE
:1029400040420F0034000020CC000020AD1C0008E5
:10295000231D000800380140704700BFFEE700BF9C
:10296000FEE700BFFEE700BFFEE770477047704715
:1029700010B500F09BF800F0A2F800240CE00E481F
:1029800050F8240030B10C4850F82400401E0A4989
:1029900041F82400601CC4B2022CF0DB10BD10B55D
:1029A0004FF48060FDF7B2FD28B1FFF73FFD4FF413
:1029B0008060FDF7BCFD10BD4000002008B501217E
:1029C0008820FEF7DFFB0120ADF8000010208DF815
:1029D000030003208DF8020069461048FEF716F93F
:1029E0008020ADF8000069460D48FEF70FF94FF45E
:1029F0008070ADF8000069460948FEF707F901212B
:102A00000648FEF7B0F980210548FEF7ACF94FF40F
:102A100080710348FEF7A7F908BD0000000C0140D3
:102A2000001C014030B5294800684FF47A72B0FBB1
:102A3000F2F1B1F1807F01D301201DE021F07F4050
:102A4000401E4FF0E022506150170F22002807DA95
:102A500013071D0E1E4B00F00F04241F1D5503E02D
:102A600013071C0E1B4B1C5400BF00204FF0E0222C
:102A7000906107201061002008B100BFFEE74FF011
:102A8000E020006920F001004FF0E021086130BD36
:102A90001149086000BF104909680029FBD170473F
:102AA00001460E4800680860002070470A48006828
:102AB00020B109480068401E074908607047074870
:102AC0000068401C054908607047000000000020B5
:102AD00018ED00E000E400E04C0000204800002079
:102AE00000B585B001218803FEF74CFB01210420CD
:102AF000FEF748FB4FF40070ADF8100018208DF879
:102B0000130003208DF8120004A92248FEF77EF876
:102B10004FF48060ADF8100004208DF8130004A974
:102B20001C48FEF773F84FF4E13000900020ADF838
:102B30000400ADF80600ADF80800ADF80C000C205C
:102B4000ADF80A0069461448FEF7C3FB012112489C
:102B5000FEF74BFC05B000BD70B504460D46E1B272
:102B60000D48FEF7AFFC00BF80210B48FEF718FDB3
:102B70000028F9D0204670BD10B5044600BF2021C2
:102B80000548FEF70DFD0028F9D00348FEF79EFC2E
:102B900010BD0000000801400038014000BF411E88
:102BA0000800FCD1704708B501210820FEF7EAFAB9
:102BB000C020ADF8000002208DF8020014208DF82E
:102BC00003006946F548FEF721F84021F348FEF777
:102BD000CAF88021F148FEF7C6F8F148FFF7DEFF9A
:102BE00008BDF0490880704710B50520FFF7F9FFD0
:102BF00000BF00BFFFF7D7FF10BD10B58021E74829
:102C0000FEF7B3F80A20FFF7C9FF4021E348FEF7BB
:102C1000AAF80A20FFF7C2FF8021E048FEF7A3F8D8
:102C20000A20FFF7BBFF10BD10B500248021DB4850
:102C3000FEF799F80A20FFF7B1FF4021D748FEF7C9
:102C400092F80A20FFF7AAFF07E0601CC4B2FA2C32
:102C500003DDFFF7D2FF022010BD8021CF48FEF731
:102C600068F80028F1D14021CC48FEF77EF800201A
:102C7000F2E770B504464021C848FEF776F8002513
:102C800020E004F0800020B18021C448FEF76BF8FA
:102C900003E08021C148FEF768F86006040E0A20B0
:102CA000FFF77CFF4021BD48FEF75DF80A20FFF7E3
:102CB00075FF4021B948FEF758F80A20FFF76EFF6C
:102CC000681CC5B2082DDCDBFFF7AEFF70BD10B588
:102CD0008021B248FEF747F80A20FFF75FFF402146
:102CE000AE48FEF740F80A20FFF758FF8021AB48B6
:102CF000FEF71FF808B9012010BD8021A748FEF794
:102D000034F80A20FFF74AFF4021A448FEF72DF8C7
:102D10000A20FFF743FF8021A048FEF70AF808B118
:102D20000220E9E70020E7E72DE9F04706460F46D5
:102D3000904699460025FFF7CAFF002141EA460167
:102D4000C8B2FFF796FF054615B12846BDE8F087E3
:102D50003846FFF78EFF05460DB12846F6E70024FA
:102D600009E019F80400FFF784FF05460DB1284675
:102D7000ECE7601CC4B24445F3DBFFF73EFF0020E4
:102D8000E4E78848008870472DE9F0470746884601
:102D9000144699464FF0000A0025FFF7F2FF064659
:102DA00000BF0025E2B24B4641463846FFF7BCFF64
:102DB00005466DB166B15046411C01F0FF0A04287A
:102DC00002DD2846BDE8F0873046FFF761FEE8E700
:102DD0002846F7E710B580217048FDF7C6FF0A20A6
:102DE000FFF7DCFE40216D48FDF7BDFF0A20FFF72D
:102DF000D5FE40216948FDF7B8FF0A20FFF7CEFE57
:102E000010BD70B580216548FDF7ADFF40216348D6
:102E1000FDF7ABFF0024002518E040215F48FDF7D7
:102E2000A2FF0A20FFF7BAFE6006040E80215B486D
:102E3000FDF77FFF08B144F0010440215748FDF73A
:102E400094FF0A20FFF7AAFE681CC5B2082DE4DB38
:102E5000FFF7C0FF204670BD10B580214F48FDF739
:102E600082FF0A20FFF79AFE40214C48FDF77BFFC6
:102E70000A20FFF793FE40214848FDF776FF0A201D
:102E8000FFF78CFE10BD70B580214448FDF76BFF45
:102E900040214248FDF769FF0024002518E0402149
:102EA0003E48FDF760FF0A20FFF778FE6006040E3B
:102EB00080213A48FDF73DFF08B144F0010440216C
:102EC0003648FDF752FF0A20FFF768FE681CC5B2BE
:102ED000082DE4DBFFF7C0FF204670BD2DE9F0416F
:102EE0000746884614461D46FFF7F1FE002141EAD9
:102EF0004701C8B2FFF7BDFE064616B13046BDE831
:102F0000F0814046FFF7B5FE06460EB13046F6E7C3
:102F1000FFF7DDFE012101EB4701C8B2FFF7A9FE73
:102F200006460EB13046EAE70BE0012C03D1FFF76D
:102F3000AAFF287002E0FFF764FF28706D1C601E76
:102F4000C4B2002CF1D1FFF758FE0020D7E72DE9DD
:102F5000F04707468846144699464FF0000A002578
:102F6000FFF70FFF064600BF0025E2B24B46414681
:102F70003846FFF7B3FF05466DB166B15046411CB8
:102F800001F0FF0A042802DD2846BDE8F08730463C
:102F9000FFF77EFDE8E72846F7E70000000C014058
:102FA000A08601005400002008B54FF4C060FDF772
:102FB000CBF928208DF8000000208DF801008DF855
:102FC000020001208DF803006846FDF7C2F908BD34
:102FD0000EB501210920FEF7D5F8FFF7E5FF4FF404
:102FE0008060ADF8080004208DF80B0002A91E488F
:102FF000FDF70CFE0A210120FDF71EFF4FF4806053
:10300000009000208DF8040008208DF805000120B4
:103010008DF806006846FDF713FA0EBD1CB54FF497
:103020008060009000208DF8040008208DF80500D5
:1030300001208DF806006846FDF702FA1CBD1CB59C
:103040004FF48060009000208DF8040008208DF877
:10305000050000208DF806006846FDF7F1F94FF4F1
:103060008060FDF764FA1CBD000C014001B502E070
:103070000098401E009000980028F9D108BD08B5BE
:1030800001214FF4B070FEF77DF803208DF80200A7
:1030900018208DF803004FF48040ADF80000694619
:1030A000FE48FDF7B3FD4FF40040ADF8000069465F
:1030B000FA48FDF7ABFD0120ADF800006946F7487E
:1030C000FDF7A4FD0220ADF800006946F348FDF7C6
:1030D0009DFD8020ADF800006946F148FDF796FDA2
:1030E0004FF48070ADF800006946ED48FDF78EFDA5
:1030F0004FF40070ADF800006946E948FDF786FD21
:103100004FF48060ADF800006946E548FDF77EFDAC
:103110004FF40060ADF800006946E148FDF776FD28
:103120004FF48050ADF800006946DD48FDF76EFDB4
:103130004FF40050ADF800006946D948FDF766FD30
:103140004FF48040ADF800006946D548FDF75EFDBC
:103150004FF40040ADF800006946D148FDF756FD38
:103160004FF48070ADF800006946CC48FDF74EFD85
:103170004FF40070ADF800006946C848FDF746FD01
:103180004FF48060ADF800006946C448FDF73EFD8D
:1031900003208DF8020018208DF803001020ADF8F0
:1031A00000006946BD48FDF731FD2020ADF8000064
:1031B0006946BA48FDF72AFD4FF48050ADF800008B
:1031C0006946B848FDF722FD0420ADF800006946C5
:1031D000B348FDF71BFD10208DF8030003208DF888
:1031E00002004FF40060ADF800006946AD48FDF7FD
:1031F0000DFD10208DF8030003208DF80200402003
:10320000ADF800006946A748FDF700FD08BD00B510
:1032100097B001210802FDF7A8FF012001900420CA
:10322000039080060790002002900490059006907D
:10323000062008900020099008200A9010200B908A
:1032400000200C900E900F9010904FF48050119031
:10325000002012901390149001A81590169008A8C1
:10326000FDF7BAF901210620FDF71EFB17B000BDDE
:1032700010B5CF2000F06CFC002000F06DFC812028
:1032800000F06AFC302000F067FCED2000F060FCEC
:10329000642000F061FC032000F05EFC122000F0CE
:1032A0005BFC812000F058FCE82000F051FC8520F8
:1032B00000F052FC102000F04FFC782000F04CFC95
:1032C000CB2000F045FC392000F046FC2C2000F01B
:1032D00043FC002000F040FC342000F03DFC0220C4
:1032E00000F03AFCF72000F033FC202000F034FC22
:1032F000EA2000F02DFC002000F02EFC002000F061
:103300002BFCB12000F024FC002000F025FC1B2049
:1033100000F022FCB62000F01BFC0A2000F01CFC90
:10332000A22000F019FCC02000F012FC352000F0B3
:1033300013FCC12000F00CFC112000F00DFCC52096
:1033400000F006FC452000F007FC452000F004FCDE
:10335000C72000F0FDFBA22000F0FEFBF22000F0F1
:10336000F7FB002000F0F8FB262000F0F1FB012025
:1033700000F0F2FBE02000F0EBFB0F2000F0ECFB94
:10338000262000F0E9FB242000F0E6FB0B2000F0F3
:10339000E3FB0E2000F0E0FB092000F0DDFB5420F1
:1033A00000F0DAFBA82000F0D7FB462000F0D4FBA9
:1033B0000C2000F0D1FB172000F0CEFB092000F01C
:1033C000CBFB0F2000F0C8FB072000F0C5FB00205E
:1033D00000F0C2FBE12000F0BBFB002000F0BCFBD2
:1033E000192000F0B9FB1B2000F0B6FB042000F010
:1033F000B3FB102000F0B0FB072000F0ADFB2A204B
:1034000000F0AAFB472000F0A7FB392000F0A4FB46
:10341000032000F0A1FB062000F09EFB062000F038
:103420009BFB302000F098FB382000F095FB0F202C
:1034300000F092FB362000F08BFBC82000F08CFBE4
:103440002A2000F085FB002000F086FB002000F021
:1034500083FB002000F080FBEF2000F07DFB2B20A1
:1034600000F076FB002000F077FB002000F074FBFA
:10347000012000F071FB3F2000F06EFB3A2000F0CD
:1034800067FB552000F068FB112000F061FB064847
:10349000FFF7ECFD292000F05BFB10BD001401409C
:1034A0000018014000200140FCBF020010B5044696
:1034B000072C00DD10BDFE480470204604EBD071DF
:1034C0004910A4EB410139B9F020FA4908804FF4C2
:1034D000A070F949088006E04FF4A070F549088013
:1034E000F020F5490880362000F032FB082141EA3F
:1034F000441000F031FB2A2000F02AFB002000F0ED
:103500002BFB002000F028FBEA490988491EC1F383
:10351000072000F021FBE7490978491EC8B200F0F6
:103520001BFB2B2000F014FB002000F015FB0020FB
:1035300000F012FBE0490988491EC1F3072000F0A2
:103540000BFBDD490978491EC8B200F005FB2C20B1
:1035500000F0FEFA00BFADE710B54FF40061D748A8
:10356000FDF703FC40F6FF20FFF780FD4FF40061FC
:10357000D248FDF7F8FB40F6FF20FFF777FD10BDBE
:1035800010B5044624B14021CC48FDF7EEFB03E022
:103590004021CA48FDF7E7FB10BD10B5FFF76FFDEE
:1035A000FFF735FE0120FFF7EBFFFFF7D5FFFFF731
:1035B0005FFEBF480078FFF779FF10BD2DE9F041AD
:1035C00004460D4616461F462A2000F0C1FA201276
:1035D00000F0C2FAE0B200F0BFFAA119491EC1F32F
:1035E0000F2000F0B9FAA119491EC8B200F0B4FAD0
:1035F0002B2000F0ADFA281200F0AEFAE8B200F08D
:10360000ABFAE919491EC1F30F2000F0A5FAE91938
:10361000491EC8B200F0A0FABDE8F08170B50446BA
:103620000D4601231A4629462046FFF7C7FF70BD05
:1036300070B504460D4600262C2000F089FA00BF24
:1036400003E0284600F088FA761CA642F9D370BD44
:103650002DE9F04106460F4614461D462B462246EC
:1036600039463046FFF7AAFF04FB05F09449098864
:10367000FFF7DEFFBDE8F08170B505460C468D48CA
:10368000008885420CDA8C480088844208DA21469A
:103690002846FFF7C3FF8B4801880120FFF7C8FFCA
:1036A00070BD70B50024002500262E2000F050FAD1
:1036B00000F056FA044600F053FA044600F050FABF
:1036C000064600F04DFA0546E012C002A91240EA93
:1036D000411040EAE62070BD70B504460D4629460B
:1036E0002046FFF79BFFFFF7DCFF0646304670BD24
:1036F0002DE9FF4F83B081464FF0000AD34605986D
:10370000A0EB090504990698461ACDF80490049890
:103710000090002D01DD012705E00DB9002702E032
:103720004FF0FF376D42002E02DD4FF0010806E03A
:1037300016B94FF0000802E04FF0FF387642B5426C
:1037400001DD2C4600E034460020029019E0DDE95E
:103750000010FFF791FFAA44B344A24505DDAAEB90
:10376000040A0198384480B20190A34505DDABEB13
:10377000040B0098404480B200900298401C80B234
:103780000290611C02988842E1DD07B0BDE8F08F2D
:103790002DE9F04104460D4616461F46DDF8188017
:1037A000B8F1000F0CD03B46324629462046FFF7C1
:1037B00005FF06FB07F043490988FFF739FF27E0BB
:1037C000A019401E82B22B4629462046FFF790FFE3
:1037D000E819401E83B2A019401E82B2E819401EAB
:1037E00081B22046FFF784FFE819401E83B22246CB
:1037F00029462046FFF77CFFE919491E8BB2A11923
:10380000491E8AB2A119491E88B22946FFF770FFE6
:10381000BDE8F0812DE9F05F05460E4691469B46D6
:1038200000240FFA89F70320A0EB49000FFA80FA71
:1038300095E0BBF1000F4ED0A04649E006EB080230
:1038400091B22A1990B2FFF717FF06EB080291B266
:103850002A1B90B2FFF710FF321991B2A5EB0802B4
:1038600090B2FFF709FF321B91B2A5EB080290B2AC
:10387000FFF702FFA6EB080291B22A1B90B2FFF7F6
:10388000FBFEA6EB080291B22A1990B2FFF7F4FEF4
:10389000321B91B205EB080290B2FFF7EDFE321930
:1038A00091B205EB080290B2FFF7E6FE0CE00000D3
:1038B0005C000020580000205A0000200020014039
:1038C000660000206400002008F101000FFA80F873
:1038D000B845B3DD2FE0F21991B22A1990B2FFF783
:1038E000CBFEF21991B22A1B90B2FFF7C5FE321936
:1038F00091B2EA1B90B2FFF7BFFE321B91B2EA1BF6
:1039000090B2FFF7B9FEF21B91B22A1B90B2FFF7FB
:10391000B3FEF21B91B22A1990B2FFF7ADFE321B33
:1039200091B2EA1990B2FFF7A7FE321991B2EA19E3
:1039300090B2FFF7A1FE601C04B2BAF1000F05DAE5
:10394000A000801D50440FFA80FA07E0E01B8000C1
:103950000A3050440FFA80FA781E07B200BFBC420A
:103960007FF767AFBDE8F09F2DE9F05F804689469D
:103970001646A6F120001FFA80FA7B49096889885B
:10398000794A1268D28801FB02F0C11700EB51712D
:10399000C1F3C7077448006800680AFB070B724848
:1039A0000068C38870480068828849464046FFF72F
:1039B00005FE2C2000F0CCF8002416E0002510E0D5
:1039C0001BF8040080212941084020B16748008885
:1039D00000F0C2F803E06648008800F0BDF8681CFB
:1039E000C5B2082DECDB601CC4B2BC42E6DBBDE80E
:1039F000F09F70B504460D46002624E030465A4933
:103A00000968898808445B490988884205DD0026E1
:103A100055480068C088204484B22046524909684D
:103A2000C988084454490988884201DD00260024D9
:103A30002A7821463046FFF797FF6D1C4A480068F8
:103A40008088304486B228780028D7D170BD70B500
:103A500005460E46144624E02846434909688988ED
:103A6000084444490988884205DD00253E4800682D
:103A7000C088304486B230463B490968C98808444A
:103A80003D490988884201DD00250026227831461B
:103A90002846FFF769FF641C334800688088284483
:103AA00085B220780028D7D170BD70B505460E4686
:103AB000144624E030462C490968C98808442E4938
:103AC0000988884205DD0026274800688088284448
:103AD00085B2284624490968898808442549098807
:103AE000884201DD00250026227831462846FFF76E
:103AF0003BFF641C1C480068C088304486B22078B4
:103B00000028D7D170BD1849086070471648006872
:103B10007047164A1080164A11807047134A12885F
:103B20000280134A12880A80704710490880704743
:103B30000F490880704770B50446FFF7E7FFC58856
:103B40002B460C48028821460020FFF781FD70BDFE
:103B50004FF0D841088070474FF0DA410880704735
:103B60004FF0DA40008870476000002064000020B9
:103B700066000020580000205A00002038B5044696
:103B8000F84890F82400C0B114B10220009001E080
:103B900000200090F34A1268517CF24A5268107873
:103BA0006B460122FFF7F0F810B14FF0FF3038BD3F
:103BB0009DF80010EB48417423E0EA48807A10B980
:103BC0004FF0FF30F3E724B1E648407C08B1002015
:103BD000EDE714B10120009001E000200090E14ADF
:103BE0001268517CDF4A526810786B460122FFF759
:103BF000CBF810B14FF0FF30D9E79DF80010D9484D
:103C000041740020D3E71CB5002422E0D5480068A9
:103C1000407BA04204D0D3480068007EA04200D17F
:103C200015E0D0494968087801AB01222146FFF729
:103C30008EF910B14FF0FF301CBD9DF804002346F3
:103C4000C9A200210090042002F0D9FD00BF601C31
:103C5000C4B2C44840680079A042D7DC0020EBE73A
:103C600070B504460D46BF480068407BA04204D0B2
:103C7000BC480068007EA04202D14FF0FF3070BD0A
:103C8000B84840680079A04202DC4FF0FF30F6E708
:103C9000B449496808782B4601222146FFF757F9B5
:103CA000EDE738B50446AF4890F82300A04201D1B3
:103CB000002038BD14B13020009001E000200090B9
:103CC000A848807C20B19DF8000040F002000090E0
:103CD000A44890F8220020B19DF8000040F0800038
:103CE0000090A04A1268D17D9E4A526810786B46B7
:103CF0000122FFF749F810B14FF0FF30D9E799489A
:103D000080F823400020D4E738B5044604F0700062
:103D100010B10120009005E014B10020009001E0F6
:103D2000402000908F4A1268517D8E4A5268107868
:103D30006B460122FFF728F820B1002189488172E3
:103D4000481E38BD9DF8000020F0400185480173F1
:103D50000020009004F0400020B99DF8000040F0E1
:103D60000400009004F0200020B99DF8000040F00D
:103D70000200009004F0100020B99DF8000040F00F
:103D80000100009004F0080020B99DF8000040F008
:103D900038000090734A1268917D724A5268107818
:103DA0006B460122FEF7F0FF20B100216D488172C1
:103DB000481EC6E724B1082C02D00020FFF771FF8F
:103DC00068488472002101753220FEF761FE0020F0
:103DD000B7E738B504466348807CA04201D1002093
:103DE00038BD002C46D05F4A126811795D4A52688E
:103DF00010786B460122FFF7AAF810B14FF0FF30A0
:103E0000EEE79DF8000020F020000090554A12686F
:103E10001179544A526810786B460122FEF7B4FFBC
:103E200010B14FF0FF30DBE70320FEF731FE022038
:103E300000904C4890F8220020B19DF8000040F01E
:103E400080000090474890F8230020B19DF80000C2
:103E500040F030000090434A1268D17D414A5268D8
:103E600010786B460122FEF78FFF002851D04FF0EB
:103E7000FF30B5E73B4A126811793A4A5268107828
:103E80006B460122FFF763F810B14FF0FF30A7E750
:103E90003448807A00F0010028B19DF8000040F01D
:103EA0002000009004E09DF8000020F02000009029
:103EB0002C4A126811792B4A526810786B460122FD
:103EC000FEF762FF10B14FF0FF3089E70320FEF7E5
:103ED000DFFD244890F8220010B18020009001E01E
:103EE000002000901F4890F8230020B19DF80000AA
:103EF00040F0300000901B4A1268D17D194A526888
:103F000010786B460122FEF73FFF10B14FF0FF30F3
:103F100066E714488474002062E708B51148807A87
:103F200010B94FF0FF3008BD002000900D4A126814
:103F3000517C0C4A526810786B460122FEF724FF30
:103F400010B14FF0FF30EEE7064A12685179054A8A
:103F5000526810786B460122FEF716FF60B14FF0F1
:103F6000FF30E0E780000020252335783A20252324
:103F700035780D0A00000000F84A12681179F74AF6
:103F8000526810786B460122FEF7FEFE10B14FF02A
:103F9000FF30C8E7F14890F82400002853D00C20E7
:103FA0000090EE4A12681179EC4A526810786B461C
:103FB0000122FEF7E9FE10B14FF0FF30B3E73220E7
:103FC000FEF766FDC0200090E448807A00F0010012
:103FD00020B19DF8000040F020000090DF4A1268F8
:103FE0001179DE4A526810786B460122FEF7CCFE4A
:103FF00010B14FF0FF3096E7D848407C10B1022056
:10400000009001E000200090D44A1268517CD34A0D
:10401000526810786B460122FEF7B6FE10B14FF0E1
:10402000FF3080E700200090CC4A12685179CB4ADB
:10403000526810786B460122FEF7A6FE002855D084
:104040004FF0FF306FE704200090C44A12681179E6
:10405000C24A526810786B460122FEF795FE10B1F5
:104060004FF0FF305FE7BD48807C20B9BB48807AC5
:1040700000F0010010B94020009001E060200090A5
:10408000B64A12681179B54A526810786B46012217
:10409000FEF77AFE10B14FF0FF3044E73220FEF712
:1040A000F7FCAE48407C10B10120009001E00020F8
:1040B0000090AA4A1268517CA84A526810786B4650
:1040C0000122FEF761FE10B14FF0FF302BE7A34A4B
:1040D00012685179A14A52681078A04B103301221E
:1040E000FEF752FE10B14FF0FF301CE700201AE738
:1040F00070B50446002624F00104984890F8240086
:1041000008B1002070BD9548807A10B94FF0FF309B
:10411000F8E79248057C807A204090490874084668
:10412000007CA04202D04FF0FF3600E0002614B918
:104130008A48007D18B10120FFF720FD02E0002031
:10414000FFF71CFD3CB1FFF7E8FE20B18348057482
:104150004FF0FF30D6E73046D4E738B504467F4805
:10416000807A10B94FF0FF3038BDBC2C02DB012043
:10417000009015E0622C02DB0220009010E02A2C57
:1041800002DB032000900BE0142C02DB04200090E3
:1041900006E00A2C02DB0520009001E006200090DA
:1041A0006E48C07A9DF80010884201D10020DBE7FC
:1041B0006A4A12689178694A526810786B460122FF
:1041C000FEF7E2FD10B14FF0FF30CDE79DF8001093
:1041D0006248C1720020C7E738B50446282C02DDCA
:1041E0004FF0FF3038BDDCB90020FFF75AFD00204A
:1041F0008DF8000007208DF80100584A1268517DA3
:10420000564A526810786B460222FEF7BDFD10B187
:104210004FF0FF30E6E70021504801750020E1E74C
:104220000120FFF73EFD20208DF80000012C06D173
:1042300000208DF801000520FFF78FFF17E0052C07
:1042400006DC01208DF801000520FFF786FF0EE057
:10425000142C06DC02208DF801000A20FFF77DFFF8
:1042600005E003208DF801001420FFF776FF9DF88C
:104270000100072101EB8010C0B28DF80100374A20
:104280001268517D354A526810786B460222FEF75B
:104290007BFD10B14FF0FF30A4E708212F48817259
:1042A00000210173012101750020FFF721FF00208B
:1042B00098E738B504462948807A10B94FF0FF30A6
:1042C00038BD264890F8240010B14FF0FF30F7E7D2
:1042D0002248007D50B134B1282C04DC2046FFF781
:1042E0007BFF0020ECE70020FFF776FF042C01DACB
:1042F000042404E0B4F57A7F01DD4FF47A744FF4BE
:104300007A7090FBF4F0401EC0B20090134A12681D
:104310005178124A526810786B460122FEF734FD3C
:1043200010B14FF0FF30CBE79DF80000401C4FF478
:104330007A7191FBF0F081B20848C1810146C989C8
:104340004810FFF70AFF0020BAE738B504460348D3
:10435000807A28B94FF0FF3038BD0000800000207F
:10436000022C06D0042C07D0082C08D0102C0CD11D
:1043700008E0002000900BE00820009008E01020EA
:10438000009005E01820009002E04FF0FF30E3E7D6
:1043900000BFF748407A9DF80010B0EBE10F01D163
:1043A0000020D9E7F24A1268D179F14A52681078B0
:1043B0006B460122FEF7E8FC10B14FF0FF30CBE76F
:1043C0009DF80000C110EA4841720020C4E738B5EA
:1043D0000446E748807A10B94FF0FF3038BDFA2C18
:1043E00009D0B4F5FA7F09D0B4F57A7F09D0B4F5D5
:1043F000FA6F0CD108E0002000900BE0082000903C
:1044000008E01020009005E01820009002E04FF036
:10441000FF30E3E700BFD648007A9DF80010B0EB0C
:10442000E10F01D10020D9E7D14A12689179D04A31
:10443000526810786B460122FEF7A6FC10B14FF0CF
:10444000FF30CBE79DF80000C010C949087200207A
:10445000C4E71CB5044680208DF80000C44A1268E9
:10446000517DC34A526810786B460122FEF78CFCDE
:1044700010B14FF0FF301CBD6420FEF709FB002097
:104480008DF80000BA4A1268517DB94A5268107816
:104490006B460122FEF778FC10B14FF0FF30EAE7DF
:1044A0000021B348C174FF218172FF20B049087216
:1044B000FF21AF484172C1724FF6FF71C181FF21E8
:1044C000017481740121017380F82210002180F8A9
:1044D0002310417501751630016041608160163806
:1044E00080F8241080F82510C1844FF4FA60FFF79B
:1044F0006EFF10B14FF0FF30BDE70220FFF725FF40
:1045000010B14FF0FF30B6E72A20FFF726FE10B1BA
:104510004FF0FF30AFE73220FFF7CBFE10B14FF086
:10452000FF30A8E70020FFF7E3FD10B14FF0FF30A8
:10453000A1E70020FFF74DFC10B14FF0FF309AE7E4
:104540000020FFF7E1FB002095E77CB504460D460F
:104550008748807A00F0700010B94FF0FF307CBDC2
:10456000834A1268917B824A526810786B46062211
:10457000FEF7EDFC10B14FF0FF30F0E79DF80100C1
:104580009DF8001040EA012000B220809DF8030051
:104590009DF8021040EA012000B260809DF80500FD
:1045A0009DF8041040EA012000B2A08015B1284611
:1045B000FEF776FA0020D2E77CB504460D466C483B
:1045C000807A00F0080010B94FF0FF307CBD684AD7
:1045D0001268D17B664A526810786B460622FEF755
:1045E000B6FC10B14FF0FF30F0E79DF801009DF8E8
:1045F000001040EA012000B220809DF803009DF8E1
:10460000021040EA012000B260809DF805009DF88C
:10461000041040EA012000B2A08015B12846FEF740
:104620003FFA0020D2E72DE9FE4F05460C465048E0
:10463000807A18B94FF0FF30BDE8FE8F4C4A1268FF
:10464000117C4B4A5268107802AB0222FEF77FFCC5
:1046500010B14FF0FF30EFE79DF809009DF808100A
:1046600040EA012006B214B12046FEF719FA40498B
:104670004968C88807F0A9FE3D4901904968B1F929
:10468000080007F099FE8346304607F095FE59462C
:10469000009007F070FC8246019907F0A4FC814667
:1046A000344907F016FC80464FF08F4107F069FC53
:1046B000074607F0B6FE28600020BDE71CB504469B
:1046C0002B49496808786B4602227721FEF73FFCA8
:1046D00010B14FF0FF301CBD2549496808780DF135
:1046E000020302227A21FEF732FC10B14FF0FF30B4
:1046F000F1E71F494968087801AB02227D21FEF7E6
:1047000026FC10B14FF0FF30E5E79DF801009DF861
:10471000001040EA012020609DF803009DF802107F
:1047200040EA012060609DF805009DF8041040EA11
:104730000120A0600020CEE71CB504460C49496862
:1047400008786B4602220621FEF701FC10B14FF0FB
:10475000FF301CBD0649496808780DF102030222AA
:104760000821FEF7F4FB38B14FF0FF30F1E700000D
:104770008000002000000C42F7494968087801AB2E
:1047800002220A21FEF7E3FB10B14FF0FF30E0E711
:104790009DF801009DF8001040EA012020609DF87E
:1047A00003009DF8021040EA012060609DF80500BA
:1047B0009DF8041040EA0120A0600020C9E71CB564
:1047C0000446E549496808786B4602221321FEF742
:1047D000BEFB10B14FF0FF301CBDDF4949680878BF
:1047E0000DF1020302221521FEF7B1FB10B14FF0CB
:1047F000FF30F1E7D8494968087801AB0222172158
:10480000FEF7A5FB10B14FF0FF30E5E79DF8010082
:104810009DF8001040EA012020609DF803009DF8FB
:10482000021040EA012060609DF805009DF8041028
:1048300040EA0120A0600020CEE77CB504460020BD
:1048400000900190002500BF05E054F8250040428B
:1048500044F825006D1C032DF7DB2088000A8DF835
:10486000000020788DF80100A088000A8DF8020071
:1048700020798DF803002089000A8DF80400207A41
:104880008DF80500B449496808786B460222132167
:10489000FEF77AFA10B14FF0FF307CBDAE4949689F
:1048A00008780DF1020302221521FEF76DFA10B10E
:1048B0004FF0FF30F1E7A8494968087801AB0222C0
:1048C0001721FEF761FA10B14FF0FF30E5E7002045
:1048D000E3E710B586B004460020049005900190EF
:1048E0000290039001A8FFF727FF18B14FF0FF30A7
:1048F00006B010BD0198216821F00101401A019015
:104900000298616821F00101401A02900398A168A1
:1049100021F00101401A03900198000A8DF810005F
:104920000198C0B28DF811000298000A8DF81200AB
:104930000298C0B28DF813000398000A8DF8140095
:104940000398C0B28DF8150083494968087804AB14
:1049500002220621FEF718FA10B14FF0FF30C7E728
:104960007D49496808780DF1120302220821FEF7FB
:104970000BFA10B14FF0FF30BAE777494968087871
:1049800005AB02220A21FEF7FFF910B14FF0FF300C
:10499000AEE70020ACE710B586B0044600200490D6
:1049A000059001900290039001A8FFF787FE18B1CF
:1049B0004FF0FF3006B010BD0198216821F00101D1
:1049C000401A01900298616821F00101401A02909A
:1049D0000398A16821F00101401A03900198000A90
:1049E0008DF810000198C0B28DF811000298000AED
:1049F0008DF812000298C0B28DF813000398000AD7
:104A00008DF814000398C0B28DF81500524949681A
:104A1000087804AB02227721FEF7B6F910B14FF007
:104A2000FF30C7E74C49496808780DF112030222AC
:104A30007A21FEF7A9F910B14FF0FF30BAE74649E5
:104A40004968087805AB02227D21FEF79DF910B177
:104A50004FF0FF30AEE70020ACE701463E48007A59
:104A600030B1012807D0022809D003280FD10AE06D
:104A7000FA2008800EE04FF4FA7008800AE04FF444
:104A80007A70088006E04FF4FA60088002E00020A7
:104A9000088000BF00BF0020704701462E48407AC2
:104AA00030B1012807D0022808D003280CD108E033
:104AB000022008700BE00420087008E0082008704D
:104AC00005E01020087002E04FF0FF30704700BF93
:104AD0002148C07C18B108784006000E08700020FC
:104AE000F4E701461C48C07A082817D2DFE800F036
:104AF0001704070A0D101318BC20088013E0622069
:104B0000088010E02A2008800DE0142008800AE0C8
:104B10000A20088007E00520088004E000BF00BFED
:104B20000020088000BF00BF0020704701460A48EF
:104B300090F8240010B14FF0FF3070470648C0894C
:104B400008800020F9E7014600200880401E7047D9
:104B500001464FF0FF307047800000200146FE48BC
:104B6000007A30B1012807D0022808D003280CD1E0
:104B700008E0FA4808600BE0F948086008E0F948E6
:104B8000086005E0F848086002E04FF0FF30704729
:104B900000BF0020FBE70146EF48407A30B1012812
:104BA00008D002280AD0032810D10BE04FF480402F
:104BB00008800EE04FF4005008800AE04FF4805067
:104BC000088006E04FF40060088002E04FF0FF30FC
:104BD000704700BFE048C07C10B1088840100880D2
:104BE0000020F5E70146DC48007C08700020704793
:104BF0000146D948807A10B10120087001E00020F8
:104C000008700020704738B50446D348807A10B940
:104C10004FF0FF3038BDD04A1268917CCE4A5268BE
:104C200010786B460222FEF792F910B14FF0FF3078
:104C3000F0E79DF801009DF8001040EA012000B265
:104C400020800020E6E72DE9FE4F07468846924681
:104C50001D46DDF830B000260024BF4890F824003F
:104C600010B1601EBDE8FE8F00202870BA48807A1F
:104C700010B94FF0FF30F5E7B748007C10B94FF09E
:104C8000FF30EFE7B448007C00F0400008B1B01CF2
:104C9000C6B2B148007C00F0200008B1B01CC6B21A
:104CA000AD48007C00F0100008B1B01CC6B2AA48A4
:104CB000007C00F0080008B1B01DC6B2A64A126818
:104CC000117BA54A526810786B460222FEF73FF925
:104CD00010B14FF0FF30C5E79DF801009DF80010BE
:104CE00040EA0129B14501DA0020BBE79A48406853
:104CF0004088B9EB600F17DD974A1268D17C964A5D
:104D0000526810786B460122FEF721F910B14FF07E
:104D1000FF30A7E79DF8000000F0100020B1FFF77A
:104D2000FCF86FF001009DE75046FDF7B9FE8A4A96
:104D30001268517B884A526810786B463246FEF7FB
:104D400006F910B14FF0FF308CE799FBF6F0401EEA
:104D50008BF8000000202870B4422AD07E48007CE6
:104D600000F0080028B3601C1DF800001DF80410B6
:104D700040EA012000B2A8F80000E01C1DF8001075
:104D8000A01C1DF8000041EA002000B2A8F80200B3
:104D9000601D1DF80010201D1DF8000041EA0020D4
:104DA00000B2A8F80400287840F008002870A01D80
:104DB00084B2B44213D06848007C00F0400070B167
:104DC000601C1DF800001DF8041040EA012000B22C
:104DD0003880287840F040002870A01C84B2B4428B
:104DE00013D05D48007C00F0200070B1601C1DF8FD
:104DF00000001DF8041040EA012000B278802878F5
:104E000040F020002870A01C84B2B44213D0524855
:104E1000007C00F0100070B1601C1DF800001DF84F
:104E2000041040EA012000B2B880287840F0100059
:104E30002870A01C84B2002014E7F8B504460F4681
:104E40001646454890F8240010B94FF0FF30F8BDE1
:104E50004148807A10B94FF0FF30F8E73E4A1268B7
:104E6000117B3D4A526810786B460222FEF76FF8BC
:104E700010B14FF0FF30EAE79DF801009DF80010F7
:104E800040EA0125A54203DA00203070401EDEE72B
:104E9000314840684088B5EB600F17DD2E4A126834
:104EA000D17C2D4A526810786B460122FEF74FF8EC
:104EB00010B14FF0FF30CAE79DF8000000F010007D
:104EC00020B1FFF72AF86FF00100C0E7224A12680C
:104ED000517B214A526810783B462246FEF737F84C
:104EE00010B14FF0FF30B2E795FBF4F0401E307088
:104EF0000020ACE70146184880F8221000207047D7
:104F00007CB5054614494968087801AB04220D2197
:104F1000FEF71DF808B107207CBD9DF80700C0F31F
:104F200001109DF8041001F0E00140EAE1008DF865
:104F300000009DF80700C0F381009DF8051001F006
:104F4000E00140EAE1008DF801009DF8070000F063
:104F500003009DF8061009E08000002000000343D4
:104F600000008342333303423333834101F0E001D5
:104F700040EAE1008DF8020000241CE01DF8040066
:104F800018B9002045F8240013E0FC4845F8240037
:104F900006E055F82400FA4906F0F3FF45F824002E
:104FA0001DF80400401EC0B20DF804000028F0D126
:104FB00000BF601CC4B2032CE0DB0020ACE72DE98D
:104FC000F04F85B006468946002502A8FFF798FFF6
:104FD00000244BE056F8240059F82410471A002FFB
:104FE00001DB394600E07942084607F0E5F98046E2
:104FF0004FF08F4106F0F7FF824602A951F82400D6
:10500000002107F0DBFA21D002A850F82410504606
:1050100006F0E9FF07464FF07E5106F0ACFF8346ED
:10502000D849486A07F06AFA07468846584607F0A2
:1050300065FA21F000413A464346CDE9000107F008
:1050400089FA12D20120A04005430EE0CD48C16983
:10505000504607F0B3FA05D3CA48016A504607F034
:10506000B7FA02D20120A0400543641C032CB1DB37
:10507000284605B0BDE8F08F2DE9F04F85B0064613
:105080000F460025C0494968087804AB03220D216A
:10509000FDF75DFF18B1072005B0BDE8F08F9DF862
:1050A000100000F01F008DF810009DF8110000F0B6
:1050B0001F008DF811009DF8120000F01F008DF800
:1050C0001200002461E056F8240057F82410A0EBE9
:1050D000010BBBF1000F01DB594601E0CBF10001F0
:1050E000084607F069F94FF08F41039006F07BFF07
:1050F000814604A8005DB8B3A249086807F065F9C5
:1051000083465946A14806F06EFF804604E0A04958
:10511000404606F036FF804604A8005D401EC0B23F
:1051200004A908550028F2D14146484606F05BFF25
:1051300083464FF07E5106F01EFF824691498869F2
:1051400007F0DCF9CDE90201504607F0D7F921F06C
:105150000041CDE90001DDE9022307F0FBF913D29C
:105160000120A04005430FE0FFE78648016948465B
:1051700007F024FA05D383484169484607F028FA26
:1051800002D20120A0400543641C032C9BDB28466F
:1051900082E72DE9F04F87B005460C469146012085
:1051A0008DF8100000208DF81100774A1268517DAB
:1051B000754A5268107804AB0222FDF7E5FD20B174
:1051C0004FF0FF3007B0BDE8F08FC820FDF760FC5E
:1051D00000208DF810006C4A1268517C6A4A5268AF
:1051E000107804AB0122FDF7CFFD10B14FF0FF3076
:1051F000E8E7654A12685179634A5268107804AB4F
:105200000122FDF7C1FD10B14FF0FF30DAE75E4A31
:105210001268517D5C4A5268107804AB0122FDF798
:10522000B3FD10B14FF0FF30CCE7574A1268917EC2
:10523000554A5268107804AB0122FDF7A5FD10B164
:105240004FF0FF30BEE7504A126811794E4A52685B
:10525000107804AB0122FDF797FD10B14FF0FF303D
:10526000B0E70C208DF81000474A12681179464AC1
:105270005268107804AB0122FDF786FD10B14FF0A3
:10528000FF309FE70F20FDF703FC3F48806A407A1C
:105290008DF810003C4A126891783B4A52681078A9
:1052A00004AB0122FDF770FD10B14FF0FF3089E72C
:1052B0003548806A007A8DF81000334A12685178B8
:1052C000314A5268107804AB0122FDF75DFD10B140
:1052D0004FF0FF3076E7B9F1000F07D02A48806A17
:1052E000807A40F0E0008DF8100004E02648806AE3
:1052F000807A8DF81000244A12689179224A526807
:10530000107804AB0122FDF73FFD10B14FF0FF30E4
:1053100058E7B9F1000F07D01B48806AC07A40F007
:10532000E0008DF8100003E01648C07A8DF81000F8
:10533000154A1268D179144A5268107804AB0122D8
:10534000FDF722FD10B14FF0FF303BE7B9F1000F40
:1053500002D0C820FDF79CFB40208DF810000A4ABF
:1053600012681179084A5268107804AB0122FDF7DF
:105370000BFD78B14FF0FF3024E700007B14AE3E08
:105380001D5A843F081B01088000002000B04C45D6
:1053900054E3853F78208DF81000FE4A1268517959
:1053A000FC4A5268107804AB0122FDF7EDFC10B105
:1053B0004FF0FF3006E7F8498889FDF769FB0020C8
:1053C0008DF81000F34A12685179F24A5268107849
:1053D00004AB0122FDF7D8FC10B14FF0FF30F1E62D
:1053E000EC4A1268117BEB4A5268107804AB022237
:1053F000FDF7ADFD10B14FF0FF30E3E69DF8110071
:105400009DF8101040EA012B0C209BFBF0F0C6B277
:105410000020A86068602860A0606060206082460C
:1054200065E0DC4A1268517BDA4A5268107804ABB6
:105430000C22FDF78CFD10B14FF0FF30C2E69DF855
:1054400011009DF8101040EA012000B2ADF80800EC
:105450009DF813009DF8121040EA012000B2ADF84B
:105460000A009DF815009DF8141040EA012000B2D2
:10547000ADF80C00BDF90810206808442060BDF9A3
:105480000A10606808446060BDF90C10A068084408
:10549000A0609DF817009DF8161040EA012000B2A8
:1054A000ADF800009DF819009DF8181040EA0120A1
:1054B00000B2ADF802009DF81B009DF81A1040EAFA
:1054C000012000B2ADF80400BDF9001028680844BE
:1054D0002860BDF90210686808446860BDF90410CE
:1054E000A8680844A8600AF1010000F0FF0AB2456C
:1054F00097DBA948D0F800C02868C117090441EA21
:105500001041070462460023384606F051FC32463B
:105510000023CDE9020106F04BFC28609E48D0F83C
:1055200000C06868C117090441EA104107046246D7
:105530000023384606F03CFC32460023CDE9020148
:1055400006F036FC68609448D0F800C0A868C1171F
:10555000090441EA1041070462460023384606F078
:1055600027FC32460023CDE9020106F021FCA860A9
:105570008948D0F804C02168C817000440EA1148DF
:105580000F04624600233846414606F011FC3246BD
:105590000023CDE9020106F00BFC20607E48D0F824
:1055A00004C06068C117090441EA1041070462465B
:1055B0000023384606F0FCFB32460023CDE9020109
:1055C00006F0F6FB60607448D0F804C0A068C1170C
:1055D000090441EA1041070462460023384606F0F8
:1055E000E7FB32460023CDE9020106F0E1FBA060B3
:1055F000A068002804DDA068A0F58030A06003E06A
:10560000A06800F58030A0600020DBE538B50446D6
:10561000604890F82400A04201D1002038BD24B396
:105620005C4890F8250010B94FF0FF30F6E70020F5
:10563000FEF7A4FA0020FEF7CCFB5649C88CFEF713
:1056400038FE002000905349496808786B460122D3
:105650002321FDF799FB01214E4880F824100120F9
:10566000FEF78CFAFEF759FC13E00020FEF786FAED
:105670004848007C00904749496808786B460122F9
:105680002321FDF781FB0021424880F82410FEF71A
:1056900044FC0020C2E72DE9F04F8DB083460F4651
:1056A00002200C903B4890F8240020B10020FFF726
:1056B000ADFF012600E0002603A8FFF7CEF905A8FC
:1056C000FFF7EBF901A8FFF70CFA02A8FFF72EFA93
:1056D000304890F80AA004A8FFF784FA002407E0F5
:1056E000002239465846FFF754FD00B902E0641C19
:1056F000022CF5DB00BF022C01D100252AE000249A
:1057000007E0012206A909A8FFF743FD00B902E05E
:10571000641C022CF5DB00BF022C01D1002519E02E
:1057200006A93846FFF74BFC00F0FF0809A95846C8
:10573000FFF7A2FC00F0FF090025B9F1000F01D12D
:1057400045F00105B8F1000F01D145F0020545F023
:10575000040500BFFF200F490872FF210D48417268
:10576000C1724FF6FF71C181FF2181720174012165
:105770000173BDF80C00FEF72AFE9DF81400FEF739
:10578000E4FDBDF80400FEF7E8FCBDF80800FEF7F4
:1057900090FD03E080000020081B01085046FEF742
:1057A000B3FA9DF81000FEF7A3FC16B10120FFF735
:1057B0002DFF28460DB0BDE8F08FF8B504460D4624
:1057C000164616B94FF0FF30F8BDA748807A10B9D9
:1057D0004FF0FF30F8E720128DF80000E0B28DF8AE
:1057E00001009DF8010028449F4949684989884281
:1057F00002DD4FF0FF30E7E79B4A1268D17E9A4AFC
:10580000526810786B460222FDF7BEFA10B14FF0D5
:10581000FF30D9E7944A1268117E934A5268107893
:1058200033462A46FDF7B0FA10B14FF0FF30CBE710
:105830000020C9E7F8B504460D46164616B94FF0E4
:10584000FF30F8BD8848807A10B94FF0FF30F8E794
:1058500020128DF80000E0B28DF801009DF80100E3
:105860002844814949684989884202DD4FF0FF3068
:10587000E7E77D4A1268D17E7B4A526810786B4612
:105880000222FDF781FA10B14FF0FF30D9E7764AD6
:105890001268117E744A5268107833462A46FDF722
:1058A00056FB10B14FF0FF30CBE70020C9E72DE9E0
:1058B000F04385B005460E46904699466A4890F8F2
:1058C000250020B14FF0FF3005B0BDE8F08316B9D8
:1058D0004FF0FF30F8E7002423E0281B102801DDFB
:1058E000102000E0281B87B2321939462046FFF706
:1058F00064FF10B14FF0FF30E6E701AA39462046B9
:10590000FFF798FF10B14FF0FF30DDE730193A464E
:1059100001A906F0D1FA10B16FF00100D4E7E01947
:1059200084B2AC42D9DB4FEA28208DF8000008F0A1
:10593000FF008DF801004C4A1268517F4A4A5268B4
:1059400010786B460222FDF71FFA10B14FF0FF30BE
:10595000BAE70121444880F82510A0F826900020DD
:10596000B2E70146404890F82400087000207047D4
:1059700002464FF0FF30704701464FF0FF3070474E
:1059800070B506460C46154665B304B90124364881
:10599000407D002833D1344890F8240038B10020ED
:1059A000FFF734FE0121304880F8201003E0002189
:1059B0002D4880F820102C481630FFF74EF82A4862
:1059C0001830FFF76AF828481A30FFF78AF8264897
:1059D0001C30FFF7ABF82448817A81771F30FFF73E
:1059E00001F90CE0204A1632002103E0505C00B1BE
:1059F00006E0491C0C29F9D34FF0FF3070BD00BF01
:105A0000FF2019490872FF2117484172C1724FF6F1
:105A1000FF71C181FF21817201740121017301466F
:105A2000887FFEF771F91049C88AFEF7D0FC0E494D
:105A3000087EFEF78AFC0C49488BFEF78EFB0A496C
:105A4000888BFEF736FC0849C87FFEF751FB0648F5
:105A500090F8200010B10120FFF7D8FD0021024886
:105A600041750020CAE700008000002010B5C8235F
:105A70004FF48062F84940F6F630FFF718FF10BD8A
:105A800010B586B00446F5A000680390F4A0006845
:105A90000290F4A000680190F3A00068009004F068
:105AA000030003A9085C8DF8140003A8C4F3C10126
:105AB000405C8DF8150003A8C4F38111405C8DF89B
:105AC000160004F0030002A9085C8DF8100002A87B
:105AD000C4F3C101405C8DF8110002A8C4F3811128
